:020000040800F2
:1000000000000120590B0008310B0008330B0008D9
:10001000350B0008370B0008390B00080000000002
:10002000000000000000000000000000A10B00081C
:100030003B0B000800000000A10B00083D0B00086E
:10004000A10B0008A10B0008A10B0008A10B0008E0
:10005000A10B0008A10B0008A10B0008A10B0008D0
:10006000A10B0008A10B0008A10B0008A10B0008C0
:10007000A10B0008A10B0008A10B0008A10B0008B0
:10008000A10B0008A10B0008A10B0008A10B0008A0
:10009000A10B0008A10B0008A10B0008A10B000890
:1000A000A10B0008A10B0008A10B0008A10B000880
:1000B0004D0B0008A10B0008A10B0008A10B0008C4
:1000C000A10B0008A10B0008A10B0008A10B000860
:1000D000A10B0008A10B0008A10B0008A10B000850
:1000E000A10B0008A10B0008A10B000800000000F4
:1000F0000000000000000000000000000000000000
:100100000000000000000000A10B0008A10B000887
:10011000A10B0008A10B0008A10B0008A10B00080F
:10012000A10B0008A10B0008A10B0008A10B0008FF
:10013000A10B0008A10B0008A10B0008A10B0008EF
:10014000A10B0008A10B0008A10B0008A10B0008DF
:10015000000000000000000000000000000000009F
:10016000000000000000000000000000000000008F
:10017000000000000000000000000000000000007F
:10018000000000000000000000000000000000006F
:10019000000000000000000000000000000000005F
:1001A000000000000000000000000000000000004F
:1001B000000000000000000000000000000000003F
:1001C000000000000000000000000000000000002F
:1001D000000000000000000000000000000000001F
:0401E0005FF8E0F1F3
:1001E40010B5054C237833B9044B13B10448AFF36D
:1001F40000800123237010BD48040020000000008B
:1002040074460008084B10B51BB108490848AFF301
:1002140000800848036803B910BD074B002BFBD0CE
:10022400BDE81040184700BF000000004C04002047
:10023400744600084804002000000000D0400B1C55
:10024400D1409C46203AD3401843524263469340DF
:100254001843704770B50F4E0F4D761BB61018BF7C
:10026400002405D0013455F8043B9847A642F9D13F
:100274000A4E0B4D04F0FCF9761BB61018BF00248F
:1002840006D0013455F8043B9847A642F9D170BD15
:1002940070BD00BF604B0008604B0008684B00084D
:1002A400604B0008024B13B1024800F005B87047D8
:1002B40000000000C9020008002301461A4618463F
:1002C40000F014B838B5074D074C2C1BA41005D00A
:1002D400013C55F8043D9847002CF9D1BDE838405D
:1002E40004F0CCB96C4B0008684B00082DE9F047CA
:1002F400254C064625688846D5F8484192469946D5
:10030400C4B360681F2817DC411C76B104EB80037A
:10031400C3F888A0D4F88851012282401543022EE4
:10032400C4F88851C3F808911ED0831C6160002072
:1003340044F82380BDE8F087144B03B34FF4C8702E
:10034400AFF300800446D0B1D5F84831002784E8E3
:1003540088003846C5F848410121C4F88871C4F8BA
:100364008C71002EE1D0D1E7D4F88C311A43C4F853
:100374008C21DAE705F5A674C5F84841C1E74FF0CA
:10038400FF30BDE8F08700BFAC4600080000000065
:10039400F0B504460F4687B000250126BC420CD8B0
:1003A40001A902A80295039604940596019500F00C
:1003B400DBFD18B904F50064F0E7002007B0F0BDD8
:1003C400F7B505460E46002302AF0B6047F8043D1F
:1003D4001024294680223B46084803F09DFB0199DE
:1003E40032680D440A44326028B9802903D1013CA3
:1003F400A4B2002CEDD103B0F0BD00BF6404002012
:10040400F8B50D4616460C46471A631B9E4209D999
:100414003919002334F8022B012000F037FD00289D
:10042400F3D000E00020F8BD70B51A4C0546214613
:1004340003F069FC50BB01222946174803F064FA13
:1004440030BB164E356800F0D9FC08B1022070BDEF
:10045400306821680144FFF79BFF0028F6D1104E55
:100464000F491048FFF7ACFF32680E492846FFF7E2
:10047400C7FF0028EAD134682544002CF0D106488F
:1004840003F030FC00F0CCFC204670BD032070BDAE
:10049400012070BD9404002064040020280400207E
:1004A400AC0500207A08002010B5074C082120462E
:1004B40001F0C4FE142000F0E5FB2046BDE8104026
:1004C400082101F007BF00BF1421002082B0019071
:1004D400019802B000F0D6BB70B5714A8EB01368B3
:1004E4004FF4003443F48030106094FAA4F311689C
:1004F40094FAA4F5B5FA85F606F01F0C21FA0CFE61
:100504005FEACE76F1D54FF0806393FAA3F0B0FAA8
:1005140080F4A10001F1844505F5840600233360CD
:100524004FF0006C9CFAACF35D4C10689CFAACF193
:10053400B1FA81F505F01F0620FA06FE5FEACE75D2
:10054400F0D4E36A23F0F00040F04001E162E56A90
:1005540025F4706646F4C063E3624FF0806494FA55
:10056400A4F0B0FA80F18D0005F1844C0CF5840EF2
:100574000126CEF800604FF0006090FAA0F31468F2
:1005840090FAA0F3B3FA83F101F01F0524FA05F6FB
:10059400F407F2D54FF0807090FAA0F4B4FA84F323
:1005A400990001F1844C0CF5840E0025CEF800501E
:1005B4004FF0007696FAA6F3394C106896FAA6F333
:1005C400B3FA83F101F01F05E840C107F2D4E66AEB
:1005D40046F48033E362E16A21F00F0545F004003C
:1005E400E062666826F4741343F4E81161604FF026
:1005F400807494FAA4F5B5FA85F0860006F1844C6B
:100604000CF5840E0123CEF800304FF0007494FAF8
:10061400A4F3116894FAA4F5B5FA85F000F01F0666
:1006240021FA06FC5FEACC73F1D5022100254FF4D0
:1006340080620F2601A80196029103950492059504
:1006440000F0AAFE044608B12D7008E010230D90B6
:1006540006A8069300F05AFF054608B12470FFDE91
:1006640000F04EFF4FF47A71B0FBF1F000F078FB2C
:10067400042000F08BFB4FF0805090FAA0F2B2FA05
:1006840082F4A30003F1844C0CF58401012008607A
:100694002A4631464FF0FF3000F014FB0EB070BD17
:1006A400001002400149024803F052BC7C100020B3
:1006B4003004002010B50122044648B94FF40071FB
:1006C4000A4800F0E3FD22464FF40061084808E0C0
:1006D4004FF40061064800F0D9FD044800224FF4AD
:1006E4000071BDE8104000F0D1BD00BF000C014016
:1006F4000014014008B501224FF40061054800F0E0
:10070400C5FDBDE8084001224FF40071024800F025
:10071400BDBD00BF00140140000C01400020704723
:1007240007B5204B9A6942F001009861996903204A
:1007340001F001030193019B00F0B2FA002211467B
:100744006FF00B0000F0BEFA002211466FF00A00B1
:1007540000F0B8FA002211466FF0090000F0B2FA76
:10076400002211466FF0040000F0ACFA002211469A
:100774006FF0030000F0A6FA00220F216FF00100D1
:1007840000F0A0FA00220F214FF0FF3000F09AFA97
:10079400054A506820F0E06141F00073536003B0F3
:1007A4005DF804FB00100240000001407FB5124BCD
:1007B40002689A421DD103F56040816941F4805278
:1007C40082618369A02103F480500190019B02910E
:1007D4000222032302A909480392059300F012FCA4
:1007E40000214020029003910491044802A900F0E2
:1007F40009FC07B05DF804FB00300140000801402B
:100804000268064B9A4208D10548816921F4805256
:100814008261E021034800F0C9BC70470030014008
:10082400001002400008014007B50368B3F1804F8F
:1008340012D103F50430C26942F00101C161C369F8
:10084400002203F00100019011461C20019B00F0DE
:1008540039FA1C2000F06AFA03B05DF804FB0000CA
:100864000368B3F1804F07D1044AD06920F0010135
:10087400D1611C2000F066BA704700BF001002402E
:100884001FB50368B3F1804F09D10320042202236A
:100894000390694603488DE80C0000F0B3FB05B0F3
:1008A4005DF804FB000801402DE9F043914C93B03E
:1008B40000F0C8F9FFF710FEA3694FF0010843F0F8
:1008C4000400A061A1694FF4007901F004020092D0
:1008D400009BA56945F00806A661A76907F008030F
:1008E4000193019BA06940F01001A161A26902F08B
:1008F40010050295029BA66946F02007A761A3692B
:100904004FF4006703F020000390039BA1697A4829
:1009140041F04002A261A569002205F04006049658
:100924004FF40061049B032500F0B0FC0BA972484E
:100934000B970E95CDF8308000F064FB00224FF445
:1009440000716E4800F0A2FC0BA96C486C4E0E9529
:10095400CDF82C90CDF8308000F054FB4246494647
:10096400664800F093FC00254FF0804386E8280099
:1009740043F63F033046B560F360356101F08EFB0A
:10098400074638BB12A94FF4805041F82C0D30466D
:1009940001F0D1F9054608B13F70FFDE304601F0A1
:1009A40097FB0746B0B960210591069005A930462A
:1009B40001F092FC05460028EED130220B920D90F6
:1009C4000F9008220BA93046CDF8308001F0C6FB09
:1009D400074608B12D70E0E73046FFF751FF494D57
:1009E400494A4FF4827385E80C0028460A23AF6015
:1009F400EF602F616F61C5F81890EF612F626F622D
:100A0400AF62EB6201F0DEF80028C5D1FFF74AFEC1
:100A1400FFF74AFD42463D493D4802F03FFF3D4F46
:100A240000283BD13C48FFF7FFFC8146002835D124
:100A34003A4803F087F93949374803F0DCF942466C
:100A44003249484602F02AFFFFF72EFD2846FFF7F9
:100A5400D7FE3046FFF704FFA66926F00400A06124
:100A6400A16921F00802A261A56925F01003A36120
:100A7400A6692B4D26F02000A061A16921F0400257
:100A8400A26100F0BBF8274BC5F80090C5F8F83C0C
:100A94003E68306880F3088871688847204DFFF706
:100AA40003FD1848FFF7ACFE1548FFF7D9FEA2690D
:100AB40022F00403A361A66926F00800A061A169DD
:100AC40021F01002A261A36923F02006A661A069A7
:100AD400144E20F04001A16100F090F8124B002266
:100AE4002A609E603868016881F3088842689047EC
:100AF400D5E700BF0010024000140140000C014083
:100B040014210020BC200020003001407C10002073
:100B14008010002028040020B0460008C0460008C9
:100B240010E000E00070000800ED00E07047FEE710
:100B3400FEE7FEE7FEE7704708B500F095F8BDE86C
:100B4400084000F030B90000014801F0C3B900BF0B
:100B540014210020002103E00B4B5B584350043167
:100B64000A480B4B42189A42F6D30A4A02E0002381
:100B740042F8043B084B9A42F9D300F011F8FFF70E
:100B840069FBFFF791FE70476C4B000800000020E2
:100B9400480400204804002070210020FEE70000E3
:100BA400124B1A6842F0010018605968104A0A4052
:100BB4005A60186820F0847121F480321A60186831
:100BC40020F4802119605A6822F4FE0058601968E4
:100BD4004FF47F0021F0A05200211A609860D9627E
:100BE400044B4FF000629A60704700BF001002404F
:100BF4000000FFF000ED00E07047000010B5074B67
:100C04004FF0FF320024DA601C61DA60DC609A6223
:100C14009C62FFF7F1FF204610BD00BF00100240A8
:100C240010B5044600F06CFC4FF47A73B0FBF3F09B
:100C340000F096F8002221464FF0FF3000F042F811
:100C4400002010BD08B5074A136843F01000106077
:100C5400032000F025F80020FFF7E2FFFFF760FD16
:100C6400002008BD00200240024A136801331360CB
:100C7400704700BFB0050020014B1868704700BFE3
:100C8400B005002013B50190FFF7F6FF0446FFF707
:100C9400F3FF019B001B9842F9D302B010BD000082
:100CA400074A0002D36823F4E0610B04190C41F0F5
:100CB400BF6C4CF4003300F4E0610B43D360704725
:100CC40000ED00E030B5174B4FF0010CDC68C4F3C5
:100CD4000223C3F10704042C28BF04241D1D0CFAAD
:100CE40004F4062D04F1FF358CBF033B0023294097
:100CF40099400CFA03F35C1E2240002842EA0102E8
:100D04004FEA0212AFBF00F16040074C00F00F0041
:100D1400D2B2A5BFD2B200F56140225480F80023BC
:100D240030BD00BF00ED00E014ED00E042090123F6
:100D340000F01F0003FA00F1014840F82210704748
:100D440000E100E04309012200F01F0002FA00F173
:100D54000248203340F82310704700BF00E100E050
:100D64000138B0F1807F0AD2064B074AF02158605F
:100D740082F8231000200721986019607047012031
:100D8400704700BF10E000E000ED00E0044B0428D1
:100D94001A680CBF42F0040222F004021A60704781
:100DA40010E000E0704708B5FFF7FCFF08BD000045
:100DB400104BDA68D00641BF0F49CA6942F00202FB
:100DC400CA61D8680B4B410741BF0B4AD06940F058
:100DD4000100D061D969CA0708D50748C26942F041
:100DE4000401C161D86920F00102DA611421D960DB
:100DF400704700BF0020024050210020064B1A69B2
:100E0400110641BF05490020596001F188314CBFEA
:100E140059600120704700BF00200240230167454C
:100E2400034A136943F0800010610020704700BF3B
:100E34000020024070B50446FFF71EFF0646124D1F
:100E4400EB68114913F0010F0AD0631CF8D00CB9F8
:100E5400032070BDFFF710FF831B9C42F0D2F7E71D
:100E6400CA68900644BF2022CA60CC680648E106DE
:100E740006D4C569EB0703D4C66816F0040002D093
:100E8400FFF796FF012070BD002002402DE9F84FC6
:100E9400214C1F46237E0546012B8946164637D032
:100EA400012020764CF25030FFF7C4FF60BB012DC7
:100EB40003D0022D0CBF022504254FF00008C246C2
:100EC400DFF858B04FEA081230463946FFF7B6F952
:100ED400C4F81CA0DBF8102081B242F00103CBF867
:100EE40010304CF2503029F81810FFF7A3FFDBF84C
:100EF400101021F00102CBF8102028B908F10108E4
:100F04005FFA88FC6545DDD800252576BDE8F88FB5
:100F14000220BDE8F88F00BF5021002000200240CD
:100F2400064B07480022DA61016941F004020261BC
:100F3400036943F040010161704700BF5021002064
:100F440000200240064B07490022DA610A6942F098
:100F540002030B614861086940F040020A6170476E
:100F640050210020002002402DE9F041234D074686
:100F74002B7E8846012B3ED001242C7601684CF24E
:100F84005030022910D1FFF755FF08B101202EE09F
:100F9400FFF7C6FF4CF25030FFF74CFF18490C69BD
:100FA40024F004070F6122E0FFF744FF0028EDD18D
:100FB4004FF0FF30C8F80000BE682046104CFA68B5
:100FC400BB6803EBC2218E4211D23046FFF7BAFF51
:100FD4004CF25030FFF72EFF226922F00203236106
:100FE40010B1C8F8006002E006F50066E7E70022E9
:100FF4002A76BDE8F0810220BDE8F081502100206E
:101004000020024000232DE9F74F1D46604ADFF817
:101014008CC1DFF88CE101240F68AC4034EA070688
:1010240040F0AF804F68122F28D00ED8022F22D064
:1010340004D837B3012F2DD1CB682BE0032F18D060
:10104400112F27D1CB68043324E0524EB74218D075
:1010540006D8DFF85081474513D008F5803A05E0FB
:1010640067450ED077450CD0DFF83CA1574511D128
:1010740007E000230EE0CB6808330BE0CB680C33A9
:1010840008E08B682BB1012B0CBF04614461082379
:1010940000E00423FF2C97BF8346A5F10807D0F88E
:1010A4000090AF0084BFD0F80490BF004FF00F0849
:1010B40008FA07F629EA060903FA07F749EA0706D0
:1010C40088BF00F1040BCBF800604F68FE0058D5D0
:1010D400314E25F00309B76909F1804A47F0010749
:1010E400B761B76905F0030907F001070197019F8C
:1010F4000AF58037D7F808A04FEA8909A6F584369F
:1011040008FA09F8B0422AEA08080ED006F5806AFF
:1011140050450CD00AF58066B0420AD006F5806AC4
:1011240050450CBF0326042604E0002602E00126F5
:1011340000E0022606FA09F646EA0809C7F808900C
:101144004F68166817F4803F14BF2643A643166001
:101154004F68566817F4003F14BF2643A6435660F1
:101164004F68966817F4801F14BF2643A643966001
:101174004F68D66817F4001F14BF344326EA0404EA
:10118400D4600135102D7FF446AF03B0BDE8F08F75
:101194000004014000002110001002400000311042
:1011A4000000321000001110000022102DE9F04F51
:1011B400334CDFF8D4B000224FF001094FF00F0C8C
:1011C4004FF0040A31FA02F357D009FA02F30B4044
:1011D40051D0FF2B98BF86466FEA03038BBFA2F161
:1011E400080506684668950088BFAD000CFA05F747
:1011F40026EA07060AFA05F588BF00F1040E2E4315
:10120400CEF80060C76822F0030808F1804E1F4042
:10121400C7600EF5803502F00307AE68BF000CFA14
:1012240007F806EA080E174EB0420CD006F58066A1
:10123400B0420AD006F58066B04208D058450CBFCB
:101244000326042604E0002602E0012600E002262C
:10125400BE40B6450FD1AF6827EA0806AE602568E0
:101264001D40256067681F406760A5681D40A56034
:10127400E5682B40E3600132A4E7BDE8F08F00BFCE
:1012840000040140000801400014014002B90904AF
:1012940001617047F0B53B4B89B01868596801AAE1
:1012A40003C2986803F10C06106004AD1C332C468D
:1012B40030687168083603C49E422546F7D1324926
:1012C4004F6807F00C03042B59D0082B01D02F488A
:1012D40056E04FF4701292FAA2F0B0FA80F607F4D6
:1012E400701408AD24FA06FCAC44FB031CF81C5C27
:1012F40042D5CF6A0F2393FAA3F2B2FA82F007F031
:101304000F06CF6AC64008AC264417F4803F16F88F
:1013140010CC1F4B1BD0C86AF02292FAA2F64FF4ED
:101324007064B6FA86F7C96A94FAA4F200F0F00081
:10133400F840B2FA82F60130B3FBF0F301F47067BF
:1013440027FA06F102315943B1FBFCF001E0B3FB8B
:10135400FCF068434FF4701494FAA4F2B2FA82F6E3
:101364004FF4501323FA06FC08AFBC441CF81C1CB1
:101374008D4205D1400803E00648684300E0044874
:1013840009B0F0BD8C4600080010024000127A003B
:1013940040787D0100093D002DE9F041544A04469E
:1013A40013680E4603F0070088420AD323689D079A
:1013B40014D55048A768416821F0F0052F434760D1
:1013C4000CE0116821F0070535431560176807F034
:1013D40007029642EAD00120BDE8F0812368D807CD
:1013E40006D4434D2F6807F0070296424BD354E0CE
:1013F4006268404D012A02D14FF4003304E0022A0E
:101404000CBF4FF00073022393FAA3F1286893FAF8
:10141400A3F1B1FA81F707F01F0820FA08FC5FEA8C
:10142400CC71D8D56B6841F2883823F003000243AD
:101434006A60FFF721FC62680746012A0CD16B68D9
:1014440003F00C000428CCD0FFF716FCC01B404569
:10145400F5D90320BDE8F081022A0FD1686800F0B5
:101464000C02082ABDD0FFF707FCC11B4145F5D982
:10147400EFE7FFF701FCC31B4345EAD8696811F0A5
:101484000C0FF6D1ADE7296821F0070333432B6035
:10149400286800F00705AE429DD12668154F16F066
:1014A400040F05D07A68E36822F4E0610B437B60A3
:1014B4002068030706D57D68246925F4605646EA4A
:1014C400C4027A60FFF7E6FE7F68F02191FAA1F387
:1014D400B3FA83F507F0F004074EEC40325D074F92
:1014E400D04038600020FFF79BFB0020BDE8F0816E
:1014F4000020024000100240D04600082C040020C6
:10150400014B1868704700BF2C0400202DE9F743F5
:101514000368054613F0010F6E4C63D0E06940F098
:101524008051E161E26902F0805601966A4E019BA6
:10153400376847F480733360FFF79EFB07463068D3
:10154400C00506D4FFF798FBC11B6429F7D9032013
:10155400BCE0216A5F4811F4407606D1276A6868C6
:1015640027F44076304320623CE06A6802F4407716
:10157400BE42F3D0016A4FF4803821F4407798FAE0
:10158400A8F3B3FA83F9554E4FF0010E46F829E05B
:1015940098FAA8F2B2FA82FC0023C90746F82C3064
:1015A4000762DBD5FFF768FB02268046374641F227
:1015B400883996FAA6F396FAA6F008B1216A00E0F3
:1015C400616A97FAA7F2B2FA82FE0EF01F0C21FAB2
:1015D4000CF3DA07C2D4FFF74FFBC8EB00034B450B
:1015E400E7D9B4E729688B0705D56268AB6822F4AC
:1015F40040473B4363602E68770705D5E06AEA6895
:1016040020F400310A43E2622F683E0705D5E36AFD
:10161400286923F480263043E062E16A88030FD40A
:101624002C4AD76A79030BD42A6812F010004DD0E3
:101634006768ED6927F4800635436560002045E05E
:101644002368244EDB003AD43768AB6917F0806F07
:1016540004D0F66A06F0F000984236D1E16A4FF001
:10166400805021F0F0021343E362E76A6B6927F4C8
:1016740070463343E36290FAA0F1B1FA81F2970025
:1016840007F1844808F584090126C9F80060FFF7CA
:10169400F3FA07464FF0005898FAA8F3206898FA2E
:1016A400A8FEBEFA8EFC0CF01F0320FA03F1CA0751
:1016B400BAD4FFF7E1FAC01B6428EDD947E7F06A12
:1016C4006A6900F470419142AED0012003B0BDE8D4
:1016D400F08300BF0010024000700040000442424A
:1016E4002DE9F04104460E4690461D46FFF7C4FA24
:1016F4000746B8F1000F3FD12268916836EA01032A
:101704000ED0691CF9D07DB1FFF7B6FAC31B9D4218
:10171400F2D209E06B1C06D1936836EA0303F9D0D0
:101724000020BDE8F08115BB25686E6826F0E0074F
:101734006F602068026822F040010160A36AB3F57B
:10174400005F09D125682E6826F400572F602068B1
:10175400026842F4005101604FF0010C4FF0000E9A
:1017640084F851C084F850E00320BDE8F081FFF70D
:1017740083FAC01B8542D7D32268CDE737B5044628
:1017840090F851001D46C0B2012840F09F80002906
:1017940000F09D80002A00F09A8094F85030012BCC
:1017A40000F094802163A16A002384F85000B1F50D
:1017B400005F4FF0120084F85100A2866365E28650
:1017C400E364A364A363A387E38709D12268106851
:1017D40020F4005313602268116841F40050106033
:1017E400A368B3F5004F01BF2268136843F4804334
:1017F400136021680A6850065EBF086840F0400024
:101804000860E2686368CAB963B1E38E012B09D04A
:10181400E18E69B32B46002202212046FFF760FFC8
:1018240000283AD1206B2268411C21630378D360DD
:10183400B4F836E00EF1FF30E086E9E75BB1E18E03
:10184400012908D0E08E98B12B46002202212046BF
:10185400FFF746FF08BB226B20681288C260236B27
:10186400B4F836C002330CF1FF312363E186E9E7B3
:10187400A36A0221B3F5005F08BF2268204602BFB5
:10188400136843F4805313602B460022FFF728FFAC
:1018940028B1606D40F010016165032017E02B460C
:1018A400012280212046FFF71BFF0028F1D1A26806
:1018B4002AB92568E9680191AB680193019B01226B
:1018C400002584F8512084F8505000E0022003B031
:1018D40030BD37B504460020ADF8060094F8510039
:1018E400069D012804D094F85100222840F0648118
:1018F400002900F05F81002A00F05C81002B00F0D9
:10190400598194F85000012800F0568194F8510050
:10191400A3870128E387A386E386A36A04BF322052
:1019240084F851004FF0010C0020B3F5005F84F8F7
:1019340050C06065A2632163A064E06409D1226899
:10194400116821F4005010602268136843F40051B8
:1019540011602068026851065EBF026842F04002CE
:101964000260E3686168B3F5006F6DD129B1B1F528
:10197400827F0ED1E18E01290BD1226B236812885C
:10198400DA60206BB4F836C002300CF1FF3120630A
:10199400E186E38E002B40D1A16A2B46B1F5005FAE
:1019A40001BF2268116841F48051116000223CE0BB
:1019B4002B46002202212046FFF792FE002840F029
:1019C400D780216B20680A88C260B4F836E0236BA4
:1019D4000EF1FF30023381B22363E18641B9A36A79
:1019E400B3F5005F01BF2268136843F480531360AA
:1019F4002B46002201212046FFF772FE002840F00A
:101A0400B7802268A06BD1680180A36BB4F83EC094
:101A140002330CF1FF30A363E087E28E002AC7D1C2
:101A24006268002A40F083802B4601212046FFF79C
:101A340057FE002840F09C802268A36BD068188071
:101A4400A16B0231A1636CE029B1B1F5827F0ED1A3
:101A5400E08E01280BD1236B2268591C216318786E
:101A6400D060B4F836E00EF1FF3CA4F836C0E38E43
:101A7400002B45D1A36A0121B3F5005F08BF22689A
:101A8400204602BF136843F4805313602B460022A0
:101A9400FFF726FE00286BD1A16B3FE02B46002206
:101AA40002212046FFF71CFE002861D1236B226827
:101AB400591C21631878D060B4F836E00EF1FF3C6D
:101AC4001FFA8CF3E38643B9A16AB1F5005F01BF45
:101AD4002268116841F4805111602B4600220121D3
:101AE4002046FFF7FDFD002842D1A06B2368421C6D
:101AF400A263D9680170B4F83EE00EF1FF30E087CC
:101B0400E28E002ACAD162688AB92B460121204696
:101B1400FFF7E6FD60BBA16B481CA0632268D06898
:101B24000870B4F83EE00EF1FF3CA4F83EC0A36A8E
:101B3400B3F5005F11D12B46002201212046FFF7A7
:101B4400CFFD18B1616D41F0020510E02268D06844
:101B540081B2ADF80610BDF806302B460122802173
:101B64002046FFF7BDFD28B1606D40F010056565A6
:101B7400032022E0A36A0125B3F5005F84F85150E5
:101B840014D121688A68D20610D5636D43F002022D
:101B940062650B6823F400520A6021680B6843F401
:101BA40000520A6084F85000284606E0002584F8B4
:101BB400505002E0012000E0022003B030BD90F854
:101BC4005100704710B50446002838D090F85130C1
:101BD4000BB9FEF7EBFD2268022084F8510011686E
:101BE4004FF0010C21F040031360E06894E80E000C
:101BF4001A432369024360691A43E3690243206A72
:101C04001A430243A36AA0691A4300F400731343FE
:101C14000B60628B636A216802F0040003434B602B
:101C24002168E26A0A612068064AC36923F40061F4
:101C3400C16100206065107084F851C010BD01209E
:101C440010BD00BFB4050020036A70B523F0010283
:101C54000262066A426884690D6824F073030D4CBD
:101C64001D438B6826F00206A04243EA06030BD10B
:101C7400CE6823F0080333438C694E6922F4407222
:101C8400344323F00403224342608561496841637D
:101C9400036270BD002C0140036A30B523F48072E6
:101CA4000262036A4268C4690D6824F073042C4319
:101CB4000E4D23F4007C8B68A8424CEA03230ED11A
:101CC40023F4006CCB6822F440524CEA032525F43B
:101CD40080634D6942EA051C8A694CEA021242603B
:101CE400C4614968C163036230BD00BF002C014078
:101CF400036A30B523F480520262036A4468C569FA
:101D040023F4005325F4E64C8D680A6843EA05334E
:101D1400074D4CEA0222A84202BF4D6924F48044D4
:101D240044EA85144460C26149680164036230BDB9
:101D3400002C0140704770B590F838300224012B14
:101D440000F0C18080F839400122046880F838200E
:101D5400A56825F47F4626F07703A3600A68402A25
:101D640000F084801AD8102A00F0998009D8002A3B
:101D740040F0A3800568A96821F0700444F00703CB
:101D84009AE0202A00F09280302A40F0968005687C
:101D9400AE6826F0700C4CF037038DE0702A3BD00F
:101DA4001ED8502A49D0602A40F0878003684D68C5
:101DB4001A6ACE6822F0100119629C691A6A24F426
:101DC400704C22F0A00141EA05154CEA06369E61EA
:101DD4001D620568AB6823F0700444F067036BE090
:101DE400B2F5805F13D0B2F5005F66D104688D68E8
:101DF400A6684B6826F47F422B43C968134343EA21
:101E04000126A6600568AC6844F4804354E0056884
:101E1400AB6823F007034FE006688D68B2684C682E
:101E240022F47F432C43C9681C4344EA0122B26074
:101E34000568AE6846F077033EE003684D681A6AA9
:101E4400CE68196A22F00A0221F001041C62996921
:101E54002A4321F0F00444EA06169E611A620568DA
:101E6400AB6823F0700141F0570325E003684D6827
:101E74001A6A1C6ACE6824F0010119629C6922F076
:101E84000A0224F0F00C2A434CEA06169E611A62F8
:101E94000568AB6823F0700141F047030CE0056866
:101EA400AC6824F0700646F0170305E00568AA68DC
:101EB40022F0700141F02703AB600125002480F873
:101EC400395080F83840204670BD704770477047DD
:101ED4007047704710B5036804461A69910715D511
:101EE400D9688A0712D56FF002021A6101680123CA
:101EF40003768A69930702D0FFF7E9FF04E0FFF74E
:101F0400E5FF2046FFF7E4FF0020207623681969E7
:101F1400480717D5DA68510714D56FF00400186123
:101F24002168022323768A69204612F4407F02D076
:101F3400FFF7CDFF04E0FFF7C9FF2046FFF7C8FF16
:101F440000202076236819690A0716D5DA68100775
:101F540013D56FF008001861216804232376CA6939
:101F64002046910702D0FFF7B2FF04E0FFF7AEFF6F
:101F74002046FFF7ADFF0020207623681969CA06C2
:101F840017D5DA68D00614D56FF0100018612168EF
:101F940008232376CA69204612F4407F02D0FFF753
:101FA40096FF04E0FFF792FF2046FFF791FF002021
:101FB400207623681969C90708D5DA68D20705D5D8
:101FC4006FF0010018612046FFF77FFF236819694D
:101FD400080608D5DA68110605D56FF08000186187
:101FE400204600F0A2F9236819694A0608D5DA6880
:101FF400500605D56FF0400018612046FFF769FFD1
:102004002368196989060AD5DA68920607D56FF03C
:10201400200018612046BDE8104000F085B910BDCD
:102024001D4A036890420ED0B0F1804F0BD0A2F548
:10203400943C604507D00CF58062904203D002F5D1
:10204400806C604519D14A6823F070031343124A27
:1020540090420ED0B0F1804F0BD0A2F5943C604575
:1020640007D00CF58062904203D002F5806C604585
:1020740003D1CA6823F44073134303608B68C362BB
:102084000A68054B8262984208BF0B694FF0010150
:1020940008BF036341617047002C014010B504463A
:1020A400A0B190F8393003F0FF021BB980F8382052
:1020B400FEF7BAFB022084F83900211D2068FFF7DF
:1020C400AFFF012184F83910002010BD012010BD9C
:1020D40010B50446A0B190F8393003F0FF021BB9E3
:1020E40080F83820FFF726FE022084F83900211DED
:1020F4002068FFF795FF012184F83910002010BDF6
:10210400012010BD036A30B523F010020262036A95
:10211400426884690D6824F4E64C4CEA05248D6811
:1021240023F0200343EA05130B4DA8420ED123F0FC
:10213400800CCB6822F440624CEA031525F040037E
:102144004D6942EA850C8A694CEA820242608461E4
:1021540049688163036230BD002C014038B590F8B2
:1021640038300446012B4FF0020023D0012584F8B7
:10217400385084F839000C2A17D8DFE802F0071623
:1021840016160B1616160F16161613002068FFF7F0
:102194005BFD0AE02068FFF7B5FF06E02068FFF763
:1021A4007BFD02E02068FFF7A3FD002084F839508E
:1021B40084F8380038BD10B50123046A8B4024EA42
:1021C40003040462036A8A4042EA0301016210BD07
:1021D40010B504460C291CD8DFE801F0071B1B1BB3
:1021E4000C1B1B1B111B1B1B16000268D36843F03E
:1021F40002000DE00268D06840F0040008E00268C4
:10220400D36843F0080003E00268D36843F0100089
:10221400D06020680122FFF7CEFF2168064A914270
:1022240002BF4A6C42F400424A642468206840F0C9
:1022340001032360002010BD002C0140FFF7C8BF3C
:1022440010B504460C291CD8DFE801F0071B1B1B42
:102254000C1B1B1B111B1B1B16000268D36823F0ED
:1022640002000DE00268D06820F0040008E0026873
:10227400D36823F0080003E00268D36823F0100059
:10228400D06020680022FFF796FF2068104988423A
:102294000DD141F21112036A1A4042B940F244438B
:1022A400016A0B401BB9426C22F40041416441F2C3
:1022B40011132468206A034043B940F24442216A5E
:1022C4000A401AB9206820F001032360002010BDE1
:1022D400002C0140FFF7B4BF30B590F838304FF010
:1022E400020C012B1ED00468012280F839C080F84A
:1022F400382065684FF0000C25F0700363600468B3
:102304000B6865682B4363600468A56825F0800347
:10231400A36004684968A5682943A16080F839204E
:1023240080F838C0604630BD70477047034B1A18B8
:1023340003EB80004168107C4B6818476408002058
:10234400064B1A5C42B9012119541A1803EB800098
:102354004368107C1968084700207047640800200F
:1023640030B4054C251804EB80004468287CA4682C
:10237400A44630BC604700BF6408002030B4054C5C
:10238400251804EB80004468287CE468A44630BC2B
:10239400604700BF6408002010B4044B1C1803EB12
:1023A40080004368207C1B6910BC18476408002027
:1023B40042884378007843EA022140EA01207047CA
:1023C4000B0A0A0C0170090E43708270C1707047C9
:1023D400024400F8011B9042FBD1704770B5002401
:1023E4002246164B53F8045C5DB10668B54209D128
:1023F4001E688568AE4205D15E684569AE4201D16A
:1024040006E0012401320A2A03F11003EAD10DE0A7
:1024140051B90B4901EB021CBCF80C30B3F5807FB9
:1024240014BF0020102070BD102070BD24B90229F3
:102434000CBF0020122070BD002070BDBC0700201E
:10244400B8070020F0B51F4A0768002352F8044C6F
:10245400BC4207D115688668B54203D15568446902
:10246400A5420ED001330A2B02F11002EED1164A16
:1024740000231C01A558144E55B101330A2BF8D181
:102484001EE069B1104C04EB0315A889C0B90FE034
:10249400375187683219576040699581906039B91E
:1024A400094901EB031CBCF80C600136B2B201E02F
:1024B4004FF48072044F581C07EB03118A81F0BD5E
:1024C4000020F0BDBC070020B8070020013809280F
:1024D40011D80B4A0301D118B1F80CC02CF4807048
:1024E40080B210B10CF1FF3188B21A44908120B946
:1024F400034AD0507047022070470020704700BF45
:10250400B8070020036A02399A1E91423DBF4289EE
:10251400406B01FB0200002070470268C36A908987
:102524005289B1FBF0F1B1FBF2F10433186830B118
:10253400814202D3091A0833F8E75B68C818704768
:1025440000F10B01002310F801CBDA0142EA530336
:102554006344884203F0FF03F5D118467047000036
:1025640010B503680446ABB119460A4611F8010BCD
:102574001F2812D93A28F8D1591C8A420AD193F853
:1025840000C0ACF13003D8B2022803D80132226073
:10259400184610BD4FF0FF3010BD014C207810BD1F
:1025A400B505002038B50D46044618B900232B6044
:1025B400092038BD0368002BF8D01A78002AF5D01A
:1025C400D98880888142F1D15878FFF7AFFE10F0A6
:1025D4000100EBD124682C6038BD01380A4411F89D
:1025E400013B914200F8013FF9D17047CA7E8B7ECE
:1025F400032843EA022C01BF487D0A7D42EA0022F7
:102604004CEA024C60467047C2F307238A76CB76C5
:102614000078032801BF120C0A75120A4A75704724
:10262400F8B5856B00F13C07044601232A46394678
:102634004078FFF7A3FEA0B9E36A626AE070E81A83
:10264400904201D30020F8BDA678012EFAD9616A20
:1026540001230D442A4639466078FFF78FFE013E78
:10266400F3E70120F8BDC3780BB1FFF7D9BF1846D3
:102674007047F8B50446FFF7F6FF0546002842D137
:102684002378032B37D12779012F34D104F13C0669
:102694000146A2893046FFF79BFE552052224FF097
:1026A400610C412384F83A02AA21722084F83C2068
:1026B40084F83D2084F83EC084F83F3084F8223208
:1026C40084F823C284F83B1284F8200284F821029F
:1026D400A16904F50970FFF773FE616904F50A70D6
:1026E400FFF76EFEA26A3B460132A2633146607870
:1026F400FFF744FE2571002211466078FFF74CFE77
:10270400003018BF0120F8BD70B5836B06468B42BC
:102714000D4611D0FFF7A7FF044670B92A460123DE
:1027240006F13C017078FFF71BFE00281CBF4FF038
:10273400FF350124B56300E00024204670BD00008D
:1027440000234FF0FF3210B5C37082630446FFF7D5
:10275400DBFF30BB4AF6552394F83B0294F83A1257
:1027640041EA002C9C451ED194F83C20E92A05D06E
:10277400E06B104B00F0FF11994216D104F1720086
:10278400FFF716FE20F07F420B4882420FD004F17F
:102794008E00FFF70DFE094CA04214BF022000205A
:1027A40010BD042010BD032010BD022010BD002068
:1027B40010BD00BFEB009000464154004641543325
:1027C4002DE9F04F002385B00B600F461546FFF747
:1027D400C7FE061EC0F23281B14850F82640002CD4
:1027E40000F02E813C60217805F0FE0781B160780D
:1027F400FFF79CFDC1070BD4002F00F0238100F0EC
:10280400040404F0FF00002C00F047810A2044E196
:102814000022F0B222706070FFF792FDC20700F14F
:1028240013810FB14307F1D404F10C020221607843
:10283400FFF7B2FD08B101202FE1B4F80C80A8F530
:102844000075B5F5606FF6D808F1FF3919EA080587
:10285400F1D129462046FFF773FF02281ED104F266
:10286400022616F8040C10B13046FFF7A1FD4DF80E
:1028740025000135042D06F11006F2D100275DF87C
:10288400275035B129462046FFF75AFF012801D8C1
:102894000AE003200137042FF1D1FAE00428CAD05A
:1028A400012801D90D20F8E094F8480094F847A0D5
:1028B400A7894AEA002B5F45F4D194F8531094F8A1
:1028C40052C05CEA012804D104F16000FFF770FDF6
:1028D400804694F84C30C4F824805A1E012AA37010
:1028E400E0D894F849B008FB03FA1FFA8BF6668126
:1028F400002ED7D00BF1FF3010EA0B0FD2D194F891
:102904004E1094F84DE07B094EEA0129B9FBF3F629
:1029140003FB169290B2A4F808900028C2D194F850
:10292400501094F84FC05CEA012003D104F15C001C
:10293400FFF73EFD94F84BE094F84A3053EA0E2337
:10294400B0D0B2B21A4452449042ABD3861AB6FB0A
:10295400FBF00028A6D04FF6F57B584500F102069F
:102964002B442A447CD840F6F57C60452662A56257
:10297400E36262636AD8B9F1000F93D0534406EB63
:10298400460906F0010E23630EEB59024FF0010BCA
:102994007B1E1A44B2FBF7F7B84583D34FF0FF30E0
:1029A4008026BBF1030FA061606126712FD194F8DA
:1029B4006D1094F86C2042EA0123012B27D1691C85
:1029C4002046FFF7A1FE10BB4AF6552694F83B5269
:1029D40094F83A72207147EA0520B04217D104F105
:1029E4003C00FFF7E5FC2F49884210D104F508703C
:1029F400FFF7DEFC2C4A904209D104F50970FFF779
:102A0400D7FCA06104F50A70FFF7D2FC60610026D0
:102A14003146264D26482B88264A01339FB284F836
:102A240000B02F80E7802061E661B558AC4208BF52
:102A3400B1501036A02EF8D100202EE00B202CE04F
:102A44000C202AE0384628E0032026E0B9F1000FE4
:102A54003FF428AF5344236372004FF0020B97E70F
:102A640094F8671094F866A0E3625AEA0123266298
:102A7400A56262637FF416AFB9F1000F7FF412AF61
:102A840004F16800FFF794FC4FF0030B2063B200DD
:102A94007EE704287FF406AFCDE605B0BDE8F08FED
:102AA400580800205252614172724161B6050020FB
:102AB400B8050020B807002001292DE9F047044695
:102AC4000D46174640F28B80036A994280F0878056
:102AD4000178022949D003295FD001297FD1828955
:102AE40005EB550ABAFBF2F8C16A4144FFF70CFE44
:102AF4000646002874D1A08915F00105BAFBF0FC44
:102B040000FB1CA304F13C0817BF18F803C05FFACC
:102B140087FC0CF00F0C4CEA071C18BF5FFA8CFC06
:102B240008F803C0A6890AF10109B9FBF6FE0121E0
:102B3400E170E16A20467144FFF7E6FD064600288D
:102B44004ED1B4F80CA0B9FBFAF20AFB129015B1FD
:102B5400C7F3071706E018F80030C7F3032723F07C
:102B64000F052F4308F8007036E081894E08B5FB45
:102B7400F6FEC16A7144FFF7C7FD064680BBA28911
:102B84006D00B5FBF2F802FB185104F13C00475408
:102B94004318C7F307275F701EE081898E08B5FBD1
:102BA400F6F8C16A4144FFF7AFFD0646C0B9B4F870
:102BB4000CC0A800B0FBFCF20CFB120A04F13C09A7
:102BC400CA445046FFF7F4FB27F0704300F070410D
:102BD40019435046FFF7F4FB0120E07000E00226A1
:102BE4003046BDE8F0870129F8B504460E4669D998
:102BF400036A994266D20178022932D0032949D066
:102C040001295FD1828906EB5605B5FBF2F7C16A4B
:102C14003944FFF779FD10B14FF0FF30F8BDA089BA
:102C24006F1CB5FBF0F3B7FBF0F100FB135CE26A39
:102C3400A444114420469CF83C50FFF765FD00284D
:102C4400EAD1A189F307B7FBF1F001FB107E7444CC
:102C540094F83C4045EA04204CBF0009C0F30B0043
:102C6400F8BD8789C16A7B08B6FBF3FE7144FFF7A0
:102C74004BFD0028D0D104F13C05A4897000B0FBC1
:102C8400F4F604FB1602A9184F7815F802C04CEAB2
:102C94000720F8BD8789C16ABB08B6FBF3FC614411
:102CA400FFF732FD0028B7D1A589B600B6FBF5F2CF
:102CB40005FB126104F13C000844FFF779FB20F0A6
:102CC4007040F8BD0120F8BDB1F5001F2DE9F041B9
:102CD40005460E4602D30220BDE8F081CA06FAD1A9
:102CE40004686961876867B92378022B01D9206B6E
:102CF40030B92089B0EB561FEDD9216BE96119E099
:102D040007466189A28902FB01F8464539460DD37D
:102D14002868FFF768FF431C074621D00128DAD949
:102D2400236A9842D7D2C8EB0606EEE72046FFF79F
:102D3400E9FBE861AF61EF69002FCCD0B4F80CC0B7
:102D440004F13C08B6FBFCF21744EF61A4890020AF
:102D5400B6FBF4F304FB136646442E62BDE8F0812F
:102D64000120BDE8F0812DE9F041804605680F4659
:102D740031B96E69A6B1286A864228BF012610E0DF
:102D84002846FFF730FF012845D9431C03D14FF0F3
:102D9400FF30BDE8F0812B6A98423DD33E4600E007
:102DA40001263446296A01348C4205D3012E02D807
:102DB4000020BDE8F08102242146D8F80000FFF786
:102DC40012FF30B1012826D00130E0D0B442E9D15D
:102DD400EEE74FF0FF3221462846FFF76DFEC0B9FB
:102DE40047B92A6AAF69931E9F426C610AD2781E62
:102DF400A86107E0224639462846FFF75DFE002811
:102E0400EFD006E02E79204646F001012971BDE895
:102E1400F0810128BBD00120BDE8F081F8B50D4652
:102E2400012D0746114601D80220F8BD0468236A23
:102E34009D42F9D22AB14FF0FF322046FFF73CFE03
:102E440008BB29463868FFF7CEFE064608B90020BD
:102E5400F8BD0128E8D0431C14D00022294620469E
:102E6400FFF72AFE78B9226AA069911E884205D22A
:102E74002579013045F00103A0612371964235465E
:102E8400DFD3E4E70120F8BD2DE9F0410025D0F8B7
:102E940000808D75C36906460C46002B61D0006B1B
:102EA400431C16D001F11507D8F8101031F815009D
:102EB40060B1002101F050F828B1FF2D05D0013593
:102EC40007F8010FF0E7054600E00025254400223D
:102ED400AA7500231A46A17D2E25376A501CBA5CB8
:102EE400202A21D0052A08BFE522092804D1E718A1
:102EF40001B9BD757D72013304EB030E8EF8092010
:102F040089B9A2F14107192F0BD8376A082897F815
:102F14000CC08CBF102708271CEA070F1CBF2032E7
:102F2400D2B28EF8162001330B280246D5D131B91E
:102F3400E518A975316A087B002808BF00232344DB
:102F440000275F72336ADA7A2272306A1C30FFF724
:102F54002FFA2060306A1630FFF72AFA060CE08058
:102F6400A680BDE8F0812DE9F843C369054688468B
:102F7400002B7AD046692036B6F5001F75D2046856
:102F8400A189B6FBF1F201FB1260002860D1A969A6
:102F94000133EB6131B92289B2EB561F58D80026B0
:102FA400EE6162E0A789B4F80AC0B6FBF7F90CF148
:102FB400FF3319EA030F4BD12046FFF714FE012813
:102FC400074602D80220BDE8F883421C02D1012042
:102FD400BDE8F883216A884234D3B8F1000FDED00B
:102FE400A9692846FFF7BFFE0746002840D00128FC
:102FF400E8D0431CEBD02046FFF735FB8046002881
:10300400E5D10146A28904F13C00FFF7E1F9394614
:103014002046FFF777FA4FF00109A06362899045D3
:103024000CD284F803902046FFF7FAFA0028CED198
:10303400A16B08F101080131A163EFE7A06BC8EBB4
:103044000003A363AF6139462046FFF75BFAE861EA
:103054006E61A08904F13C0CB6FBF0F300FB136431
:1030640064442C620020BDE8F8830420BDE8F883A2
:103074000720BDE8F8832DE9F041016B04464B1CA1
:103084000568466903D1E5274FF001080FE0FFF713
:103094001BFEA8B9F7E7236A1F7085F803806169EE
:1030A4008E420DD901462046FFF75DFF28B9E1693C
:1030B4002846FFF729FB0028EDD0042808BF02208A
:1030C400BDE8F0812DE9F04F002185B00546D0F828
:1030D4000090FFF7F9FD002840F0A5804FF0FF0BAA
:1030E4005E464FF0FF332B630093E9694846FFF7D0
:1030F4000BFB002840F097802C6A2778002F00F003
:103104008680E27AE52F02F03F00A87174D012079E
:1031140002D50F2870D101E00F2853D195F82F0064
:1031240040066CD4790606D5696994F80DB007F0A9
:10313400BF07296301E0BE4260D1637B5B455DD17B
:10314400A67E94F81B8046EA082216B2002E68D1A7
:1031540020780D2200F03F0A0AF1FF31D9F810B0AF
:1031640002FB01F801213148325CA01890F801C03B
:10317400A25C42EA0C2AB1B1B8F1FE0F51D8504614
:10318400039300F007FF08F1010102903BF81800D7
:10319400019100F0FFFE029A039B824241D1019803
:1031A4005146804603E04FF6FF70824539D101361F
:1031B4000D2ED8D1247862062DD561B33BF8186062
:1031C4004EB32EE026B92046FFF7BAF9834520D046
:1031D40095F82F10CB070FD405F1240604F10B0743
:1031E40014F8013B16F8012BBC42A3EB020002D0F9
:1031F4000028F5D000E0B0B1009F2F63FF26002126
:103204002846FFF7B0FE00283FF46FAF0BE0042020
:1032140009E0304607E007F1FF3E5FFA8EF69B4671
:10322400EDE79B46EAE705B0BDE8F08F24470008C8
:103234002DE9F04F90F82F4089B014F0A004054612
:1032440040F001810668376937F814300BB1013456
:10325400FAE705F1240705A80C223946FFF7BDF962
:103264009DF81F00C30768D5402185F82F104FF043
:1032740001080B2205A93846D6F81090FFF7ADF9DE
:10328400B8F1050F01D8434616E04346A9F1020AF6
:103294003AF8022F82B1102102F0010E0EEB430323
:1032A40013F4803F1CBF83F4883383F02103013976
:1032B4004FEA5202F0D1EBE7072203F00F0B0BF1B8
:1032C4003001392902F1FF320DF10C0C88BF0BF1EA
:1032D400370194441B098CF80110EED108A84FF073
:1032E4007E0E104400F814EC9A4204D0F85C2028B6
:1032F40001D00133F8E73B44072A9DBF08A8801892
:1033040010F8140C202003F8010BA3EB070098BF5E
:1033140001320728F0D92846FFF7D4FE30B908F166
:103324000108B8F1640FA4D10720ABE0042840F0F1
:10333400A9809DF81F3085F82F309DF81F2028465E
:10334400910742BF0C340D21B4FBF1F44FF000019E
:103354004CBF01340124D5F80090FFF7B5FC0028D8
:1033640040F08D808246E9694846FFF7CDF9002890
:1033740040F085802B6A1A78E52A00D032B90AF128
:10338400010A544503D1013C5FD007E08246012184
:103394002846FFF7E8FD0028E5D070E06869A0EB57
:1033A40044112846FFF790FC00286BD13846FFF7FC
:1033B400C7F88046E9693046FFF7A6F98646002833
:1033C40060D14FF00F022B6AE1B2D6F810C0DA7266
:1033D40018739876D8764A1E0D2042434FF6FF792B
:1033E400704683F80D80019248451FBF019A3CF84E
:1033F400120001320192254A1EF802A00EF1010EBC
:1034040003F80A0003EB0A0B4FEA102A002808BF4E
:103414004846BEF10D0F8BF801A0E5D14FF6FF72BF
:10342400904203D001983CF810200AB941F04001C1
:1034340019700123F37000212846FFF794FD08BB9F
:10344400013CB7D101E006201CE0E9693046FFF7F2
:103454005BF9044688B9286A20222146FEF7B8FFA2
:10346400286A0B223946FFF7B8F82F6A95F82F50CF
:10347400012205F018003873F270204602E0042897
:1034840008BF072009B0BDE8F08F00BF244700083B
:103494002DE9F84F4FF0FF084446424E07460568B1
:1034A4000420F96900296FD02846FFF72DF9002878
:1034B4006BD1386A0378002B6ED0C27AE52B02F008
:1034C4003F02BA7158D02E2B56D022F02001082981
:1034D40052D00F2A46D15A0606D503F0BF047B69A1
:1034E40090F80D903B6302E0A34245D1C14690F8A9
:1034F4000D80C8453FD190F81BA0827E42EA0A2184
:103504000BB2CBBB4FF6FF7A90F800B00D210BF055
:103514003F0C0CF1FF324A43D5F810E04FF0010C98
:1035240013F8069000EB090B9BF801B010F8091092
:1035340041EA0B29BCF1000F06D0FE2A1CD82EF854
:103544001290CC46013201E0D14515D101330D2B47
:10355400E6D1007843061CD5FE2A0DD800232EF8A8
:10356400123016E01CB9FEF7EBFF404516D04FF0C1
:10357400FF30386312E0C846FF2400213846FFF7C5
:10358400F2FC00288DD000E040B10025FD61BDE8CB
:10359400F88F013CE4B2F0E70420F6E70020BDE830
:1035A400F88F00BF244700082DE9F74F0B78064633
:1035B4002F2B8846D0F800B001D05C2B01D14246B5
:1035C40002E0DBF81C1008E0107890462F2802F186
:1035D4000102F9D05C28F7D00021B16098F80040CE
:1035E4001F2C63D8802086F82F003046002103B0BA
:1035F400BDE8F04FFFF768BB2F2860D05C285ED091
:10360400B4F5807F00F03B81012100F0A5FC002887
:1036140000F035817F2804D89D4A12F8013F002B21
:1036240059D1254627F8020F1AF8010F6C1C1F28E0
:10363400E2D81F28A0448CBF00240424012D4DD1BE
:10364400B9F800702E2F4FD1002029F8150006F18B
:10365400230C854294BF4FF020094FF02E0901300E
:103664000B280CF8019FF4D144F0200486F82F4075
:103674003046FFF727FD96F82F10002840F0DE8033
:103684004A0700F10281B279D30640F1EB80BBF81E
:103694000CA073690BF13C01B3FBFAF50AFB153E70
:1036A4009BF800007144FEF7A1FFB060356808F193
:1036B400FF3AD5F810900025A9F10207B4E708EB0A
:1036C400040C01E05C29B4D1C8EB0C041CF8011B08
:1036D4002F29F7D1F8E798429FD1D0E0022D03D1EA
:1036E400B9F802002E28ABD009EB450A04E03AF8F9
:1036F400022D202A03D1013D002DF8D101E02E2A0C
:10370400F9D0002709EB450329F81570002D00F0C6
:10371400B68020210B2206F12400FEF759FE39461B
:1037240039F81100202801D10131F9E72E28FBD006
:1037340021B144F0030401E0013D03D033F8022D2C
:103744002E2AF9D100231F464FF0080A39F8110038
:103754004A1C00284ED0202803D02E2805D1AA4286
:1037640008D044F003041146F0E7534505D2AA42B9
:1037740017D186E05345C0F08480BAF10B0F04D111
:1037840044F003044FF00B0A34E0AA4202D044F0A0
:1037940003042FD8B800C7B22A464FF00B0A0823F7
:1037A400E1E77F280ED900218DE80C0000F0D4FB5E
:1037B4009DE80C0018B13749084410F8800C44F017
:1037C400020430B1DFF8D0E01EF8011F29B18842AD
:1037D400FAD144F003045F2007E0A0F1410C1FFA82
:1037E4008CF1192940D847F00207F11881F8240018
:1037F4000133B8E796F82420E52A04BF052286F8A9
:103804002420BAF1080F04BFBF00FFB207F00C0375
:103814000C2B03D007F00305032D01D144F002045F
:10382400A1073FF523AF07F00307012F08BF44F0BA
:103834001004042B08BF44F0080417E7042824D11B
:1038440011F0200F01F0040407D0002C3FF42EAF38
:10385400802786F82F70002017E0002C14BF042066
:10386400052012E0052010E0A0F1610E1FFA8EF190
:1038740019299EBF203847F0010780B2B5E706201A
:1038840003E0BAF10B0F85D17AE703B0BDE8F08FFE
:10389400DF46000831470008E8460008F0B585B067
:1038A400019004A840F8041D00911646FEF758FE46
:1038B400051E20DB124B53F8254019465CB100234A
:1038C4001A4610481F58BC4208BF1A501033A02B88
:1038D400F8D100232370019C0CB1002020700198C2
:1038E40041F8250050B1012E07D1002201A96846F4
:1038F400FEF766FF02E00B2000E0002005B0F0BDFB
:1039040058080020B80700202DE9F04790B0019135
:1039140090460446002800F0A28002F03F073A4691
:1039240002A901A8FEF74CFF0646002840F0EB80F0
:10393400029B10AD45F8343D01992846FFF734FE4B
:1039440068B99DF93B00002808DB17F03E0F14BF4F
:10395400012100212846FEF741FD00E0062018F071
:103964001C0F5AD088B104280BD16A490023585837
:1039740020B11033A02BFAD1122002E02846FFF721
:1039840057FC47F0080740B1B8E09DF8122012F048
:10399400110F6AD118F0040F63D138074ED5FCF724
:1039A400BDFE824601460B980E30FEF709FD0B98CA
:1039B40051461630FEF704FD0B9A2021D172DDF832
:1039C4000890DDF82CA099F800005146FEF70EFE91
:1039D4008046002251464846FEF716FE0B9B02988D
:1039E400002201211A775A779A77DA77C170B8F1F1
:1039F400000F21D002992846D1F838904146FFF7AC
:103A04000DFA00287AD149460298FEF77DFE029A03
:103A140008F1FF33536168B170E000286ED19DF85E
:103A240012905FEAC9621ED418F0020F02D05FEA56
:103A3400C9701AD43A0701D547F0400702980B9A87
:103A4400836B17F0FE0F6362A26214BF0121002191
:103A54002846FEF7F7FC206100284ED007E0092035
:103A640054E008204AE0042048E0072046E0DDF85E
:103A740008A00B9D9AF800002946FEF7B7FDA06048
:103A8400804605F11C00FEF793FC0021E060E16232
:103A9400C4F800A00546BAF80600BB06A080277546
:103AA40061752162A1612BD555B3A561BAF80A707D
:103AB400BAF80C305F43AF420ED241462068FFF79C
:103AC40092F801288046A5EB070504D9B0F1FF3F21
:103AD400F1D1012600E00226C4F81C809EB90298A8
:103AE4008289B5FBF2F902FB19554DB14146FEF747
:103AF40009FD38B14844206202E00220064602E093
:103B0400002003E0022630460021216010B0BDE809
:103B1400F08700BFB80700202DE9F74F984600232F
:103B24000F46C8F8003001A905461446FEF73AFDD1
:103B3400002840F09C80687D002840F09880287D13
:103B4400C20740F19380E968AA698E1AB44228BF7B
:103B54003446002C00F088800198A969B0F80CA0C4
:103B6400B1FBFAF20AFB1213002B52D1B0F80A90FF
:103B740009F1FF3616EA020916D109B9A86809E065
:103B8400E86A18B12846FEF7C8FC03E0E96928682A
:103B9400FFF729F8012801D8022002E0431C02D1D2
:103BA4000120687563E0E861DDF804B0E96958460E
:103BB400FEF7A8FC0028EFD0BBF80C1009EB000AB4
:103BC400B4FBF1F61EB3BBF80A1009EB060C8C45E6
:103BD40088BFC9EB01063346524639469BF80100BB
:103BE400FEF7BEFB0028DBD10199CA785AB1886B75
:103BF400CAEB00039E4206D98A8922B13C3102FBFA
:103C04000370FEF7EAFC01998A89564321E0C5F85E
:103C140020A00198AE698389296AB6FBF3FC03FBF3
:103C24001C629E1AA64228BF2646FEF76DFD002898
:103C3400B6D176B10198AB69B0F80CE000F13C0163
:103C4400B3FBFEF90EFB193B324659443846FEF7E6
:103C5400C4FCA86937443044A861D8F80030A41BD8
:103C64003344C8F8003074E7204600E0072003B06E
:103C7400BDE8F08FF7B501A90446FEF793FC0546AD
:103C840068BB237D5B062AD5FCF748FD616A0746BD
:103C94000198FEF739FD054608BBA66AF07A40F0A4
:103CA4002001F172A26831462068FEF7ADFCE1689C
:103CB40006F11C00FEF784FB394606F11600FEF7F8
:103CC4007FFBB574F574019D0122EA700198FEF73B
:103CD400D0FC054694F814C02CF040032375284604
:103CE40003B0F0BD13B50446FFF7C4FF48B901A9FA
:103CF4002046FEF757FC20B92069FEF7E7FB00B920
:103D0400206002B010BD30B591B001900D46002284
:103D140003A901A8FEF754FD044680B9019903A83C
:103D2400FFF742FC044650B99DF93B30002B05DBFC
:103D34002DB1294603A8FFF7A7F800E00624204682
:103D440011B030BDF0B59FB00190022203A901A8C3
:103D5400FEF736FD039B04460493002848D10199DD
:103D640004A8FFF721FC0446002841D19DF83F50E8
:103D7400A8060DD4022104A8FEF730FB044600284F
:103D840036D1290604D49DF81670FA072FD401E021
:103D940006242DE0039E0C993078FEF727FCFB06E1
:103DA400054611D5F069854221D0214611A8119606
:103DB4001395FEF789FF0446D0B911A8FFF768FBF5
:103DC4000446A0B1042813D104A8FFF754F904460B
:103DD40070B925B90398FEF74CFC044608E0024686
:103DE400294604A8FFF71AF8044608B9F2E707249D
:103DF40020461FB0F0BDF0B5A5B0019024A840F84E
:103E0400901DFEF7ADFB022203A901A8FEF7D8FC22
:103E1400002874D1039B24AC44F8683D01992046E2
:103E2400FFF7C2FB00286AD19DF8570010F0A00FDD
:103E340058D102212046FEF7D1FA00285FD1129909
:103E440015220B3104A8FEF7C8FB214617A834221B
:103E5400FEF7C3FB009917A8FFF7A6FB40B90C991E
:103E6400199A8A4248D10F9D1C9EAE4244D101E06A
:103E7400042844D117A8FFF7DBF900283FD11F9D80
:103E84000DF1120105F10D001322FEF7A6FB9DF8BA
:103E94001070039847F020030127EB72C770E97A8A
:103EA400CB0621D5199E0C9AB2421DD0039E2946F9
:103EB4003078FEF79BFB01463046FEF723FB0146B4
:103EC400E0B13046FEF720FCC8B9039890F85D5085
:103ED4002E2D09D1199A00F15C01FEF795FB039B85
:103EE400DF7001E006200AE02046FFF7C4F830B98D
:103EF4000398FEF7BEFB02E0082000E0022025B094
:103F0400F0BD000030B5114BDC7C032C1BD8DD7CEC
:103F140000245FFA85FCDD7C03F80C4003EB850C80
:103F2400CCF80400D87C18440274DA7CD5B2681C3E
:103F3400C2B23035DA740D703A232F254B708D7070
:103F4400CC70204630BD012030BD00BF6408002085
:103F54000022FFF7D7BF00007F2810B517D939B169
:103F6400FF2813D80A4AA0F1800132F8110010BDCD
:103F7400074A32F811408BB2844203D001318029C0
:103F8400F7D10B4603F18000C0B210BD002010BD74
:103F9400604A00081F4A204970B5B0F5805F28BF09
:103FA4001146043131F8043C8C468BB398422FD32C
:103FB40031F8024CE2B2D618B0424FEA142521DAA5
:103FC400082D25D8DFE805F005090E10121416187F
:103FD4001A00C01A31F8100070BDC31A03F00104AE
:103FE400001B0DE010380BE0203809E0303807E002
:103FF4001A3805E0083003E0503801E0A0F5E3503A
:1040040080B270BD0431002DCCD10CEB4201C8E765
:1040140070BD00BFB24700086E48000818B9034BD2
:104024001878C0B270470120704700BF44040020D4
:1040340007B58DF807000848FDF7C1FD01280246C1
:10404400F9D141F288330DF107010348FDF796FBDE
:1040540003B05DF804FB00BFBC2000201FB5FF23A4
:1040640000208DF80E308DF80F000A48FDF7A7FDEB
:1040740001280346F9D141F288320DF10E01009274
:1040840004480DF10F02FDF724FC9DF80F0005B064
:104094005DF804FBBC20002013B5FCF72BFB0A24BD
:1040A400FF20013CFFF7C4FF14F0FF04F8D12046C1
:1040B400FCF700FB402395208DF800308DF801407B
:1040C4008DF802408DF803408DF804408DF805000A
:1040D4001DF804000134FFF7ABFF062CF8D14FF4B0
:1040E4000054FFF7BBFF012801D0013CF9D1FCF7D4
:1040F40001FBFF20FFF79CFF024901220A7002B076
:1041040010BD00BF7908002038B5FFF7A7FF40F2C3
:10411400F514FFF7A3FFFF28054606D0013C012054
:10412400A4B2FCF7D3F9002CF3D1284638BD38B536
:1041340004460D46FFF7E8FFFF2826D12046FFF787
:1041440077FF280EFFF774FFC5F30740FFF770FFF2
:10415400C5F30720FFF76CFFE8B2FFF769FF402CB7
:1041640015D0482C0CBF87200020FFF761FF4C2C92
:1041740001D1FFF773FF0A24FFF770FF03060AD586
:10418400611E11F0FF04F7D138BDFF2038BD952022
:10419400FFF74EFFEFE738BD38B505460C46FFF78D
:1041A400B3FFFF282DD12046FFF742FFFD2C20D07E
:1041B400AC1C05F2022514F8020CFFF739FF023497
:1041C40014F8030CFFF734FFAC42F4D1FFF746FFB9
:1041D400FFF744FF4125FFF741FF00F01F03052BC4
:1041E400044601D0013DF6D1FFF738FF0028FBD08B
:1041F40000E0002404F01F00411F4A4242EB01008A
:1042040038BD002038BD70B506460D466524FFF75D
:1042140025FFFF2808D10120013CFCF757F914F0D1
:10422400FF04F4D1002070BDFE28FBD1B41C02357C
:10423400FFF714FF04F8020CFFF710FF023404F830
:10424400030C2B1BDE42F3D1FFF708FFFFF706FF39
:10425400012070BD73B5002840F0A180514A137845
:10426400164603F0020000F0FF0408B1167894E04B
:10427400FFF712FF2046FCF71DFA21464020FFF706
:1042840056FF012878D14FF4D5714820FFF74FFF2E
:1042940001283ED101ADFFF7E1FE28550134042C7D
:1042A400F9D19DF80620012A66D19DF80730AA2B82
:1042B40062D14FF47A7400217720FFF738FF012888
:1042C40009D90120FCF702F94FF6FF71601E84B290
:1042D4008C42F0D108E04FF080416920FFF727FFBE
:1042E4000028EED1002C47D000217A20FFF71FFFD1
:1042F400002841D10446FFF7B1FE28550134042CAF
:10430400F9D19DF8045015F0400F14BF062402247F
:1043140033E021467720FFF70AFF012805D821461C
:104324006920FFF704FF012801D9012400E00224D9
:104334004FF47A75022C4FF0000111D17720FFF76A
:10434400F6FE012809D90120FCF7C0F84FF6FF71E9
:10435400013DADB28D42EDD108E00021692000E0BD
:104364004120FFF7E4FE0028EDD12DB14FF4007198
:104374005020FFF7DCFE00B100240B4A1470FCF758
:10438400B9F9FFF76BFE1CB1317801F0FE0002E0D1
:10439400064B01201C7030703678F0B200E001202A
:1043A40002B070BD44040020780800207908002081
:1043B40070B50D4616461C4600283ED1002B3CD055
:1043C4001F4B1978CA0705D41E480278530707D42F
:1043D400760205E0FFF73EFF0028F5D0032070BD0C
:1043E4000020FCF767F9012C31460CD15120FFF76E
:1043F4009EFED0B94FF400712846FFF704FFB0FACF
:1044040080F35C0911E05220FFF791FE68B94FF484
:1044140000712846FFF7F7FE18B1013C05F5007559
:10442400F5D100214C20FFF782FEFCF763F9FFF77A
:1044340015FE201C18BF012070BD042070BD00BFF4
:104444004404002078080020F8B50D4616461C46A2
:10445400002851D1002B4FD0294B1A781F4612F057
:10446400010F03D13878420748D405E0FFF7F2FE84
:104474000028F7D00320F8BD224900200B780F460E
:1044840013F0040F08BF7602FCF714F9012C0CD1C9
:1044940031465820FFF74BFE28BBFE212846FFF784
:1044A4007BFEB0FA80F674091EE03A78930707D5CC
:1044B40000217720FFF73BFE21465720FFF737FE08
:1044C40031465920FFF733FE70B9FC212846FFF727
:1044D40063FE18B1013C05F50075F6D1FD210020FD
:1044E400FFF75AFE00B90124FCF704F9FFF7B6FD03
:1044F400201C18BF0120F8BD0420F8BD0220F8BD1F
:1045040044040020780800207FB50E461546044672
:10451400002840F0A580052918D11278012A11D06D
:1045240006D3022A40F09C804F490E786E700BE04F
:104534004D4D2878002800F094804C4B01202C70BD
:10454400187001E0FFF7A8FD20468AE0474B197870
:10455400CB070DD40020FCF7ADF80D2E7AD8DFE898
:1045640006F0520D4E7979797979797979595C6ABD
:10457400FFF770FE0028EDD0032072E000214920EF
:10458400FFF7D5FD044608B1012464E01021684614
:10459400FFF739FE0028F7D09DF800609DF808C0A9
:1045A400B309012B9DF8096006D1013606EB0C26F0
:1045B400B0B283022B604EE09DF807109DF80620F0
:1045C400880000EB9C13910201F4406E9DF80500F5
:1045D400013373449DF80A201FFA83FC00F00F0393
:1045E40003EBD2117600023106F006000B185FFAD5
:1045F40083FEAEF109020CFA02F129602BE04FF4BC
:1046040000722A8024E0FFF77FFDB0F1FF0418BF99
:10461400012420E00021492001E000214A20FFF785
:1046240086FD0028B0D110212846FFF7ECFDB0FA32
:1046340080F044090FE000217A20FFF778FD00287C
:10464400A2D12C1DFFF70AFD05F8010BA542F9D1F3
:10465400002400E00424FCF74DF8FFF7FFFC73E7A7
:10466400042004B070BD00BF790800204404002079
:10467400F8B500BFF8BC08BC9E467047F8B500BF4B
:08468400F8BC08BC9E4670471B
:10468C0000000405060708090000000D01020304E0
:10469C0005060708090A0B0C0D0E0F10430000004D
:1046AC0000000020303A2F6D6B7374667432382E14
:1046BC0062696E00303A2F4D4B5354465432382EAB
:1046CC0043555200000000000000000001020304EA
:1046DC0006070809222A3A3C3E3F7C7F002B2C3BE4
:1046EC003D5B5D00EBFE904D53444F53352E300037
:1046FC004E4F204E414D4520202020464154333210
:10470C00202020004E4F204E414D45202020204699
:10471C00415420202020200001030507090E10120F
:10472C001416181C1E808182838485868788898A4A
:10473C008B8C8D8E8F909192939495969798999A45
:10474C009B9C9D9E9F808182838485868788898A95
:10475C008B8C8D8E8FB0B1B2B3B4B5B6B7B8B9BAC5
:10476C00BBBCBDBEBFC0C1C2C3C4C5C6C7C8C9CA15
:10477C00CBCCCDCECFD0D1D2D3D4D5D6D7D8D9DA05
:10478C00DBDCDDDEDF909192939495969798999A65
:10479C009B9C9D9E9FF0F0F2F2F4F4F6F6F8F9FA79
:1047AC00FBFCFDFEFF007D1D0100632C001E96012D
:1047BC00A01E5A01001F0806101F0606201F08061F
:1047CC00301F0806401F0606511F0700591F521FB5
:1047DC005B1F541F5D1F561F5F1F601F0806701F55
:1047EC000E00BA1FBB1FC81FC91FCA1FCB1FDA1F61
:1047FC00DB1FF81FF91FEA1FEB1FFA1FFB1F801F9F
:10480C000806901F0806A01F0806B01F0400B81F5A
:10481C00B91FB21FBC1FCC1F0100C31FD01F020643
:10482C00E01F0206E51F0100EC1FF21F0100FC1F38
:10483C004E210100322170211002842101008321BC
:10484C00D0241A05302C2F04602C0201672C060191
:10485C00752C0201802C6401002D260841FF1A03DF
:10486C00000061001A03E0001703F8000703FF00C3
:10487C0001007801000130013201060139011001FB
:10488C004A012E017901060180014D00430281018C
:10489C0082018201840184018601870187018901DB
:1048AC008A018B018B018D018E018F019001910189
:1048BC00910193019401F6019601970198019801D9
:1048CC003D029B019C019D0120029F01A001A001C2
:1048DC00A201A201A401A401A601A701A701A9019B
:1048EC00AA01AB01AC01AC01AE01AF01AF01B1014A
:1048FC00B201B301B301B501B501B701B801B801FB
:10490C00BA01BB01BC01BC01BE01F701C001C10170
:10491C00C201C301C401C501C401C701C801C7015B
:10492C00CA01CB01CA01CD011001DD0101008E01CC
:10493C00DE011201F3010300F101F401F401F801AD
:10494C002801220212013A020900652C3B023B02AB
:10495C003D02662C3F0240024102410246020A011E
:10496C005302400081018601550289018A015802D7
:10497C008F015A0290015C025D025E025F0293019C
:10498C006102620294016402650266026702970189
:10499C0096016A02622C6C026D026E029C0170021E
:1049AC0071029D01730274029F01760277027802F4
:1049BC0079027A027B027C02642C7E027F02A601C1
:1049CC0081028202A9018402850286028702AE015D
:1049DC004402B101B20145028D028E028F02900297
:1049EC009102B7017B030300FD03FE03FF03AC033D
:1049FC0004008603880389038A03B1031103C203ED
:104A0C000200A303A303C4030803CC0303008C0319
:104A1C008E038F03D8031801F2030A00F903F30382
:104A2C00F403F503F603F703F703F903FA03FA03A8
:104A3C003004200350041007600422018A0436015C
:104A4C00C1040E01CF040100C004D004440161056F
:104A5C002604000010041104120413041404150499
:104A6C0016041704180419041A041B041C041D044E
:104A7C001E041F04200421042204230424042504FE
:104A8C0026042704280429042A042B042C042D04AE
:104A9C002E042F043004310432043304340435045E
:104AAC0036043704380439043A043B043C043D040E
:104ABC003E043F049125922593250225242561254A
:104ACC006225562555256325512557255D255C25E1
:104ADC005B251025142534252C251C2500253C256B
:104AEC005E255F255A2554256925662560255025A8
:104AFC006C2567256825642565255925582552257B
:104B0C0053256B256A2518250C25882584258C258D
:104B1C009025802540044104420443044404450488
:104B2C0046044704480449044A044B044C044D040D
:104B3C004E044F04010451040404540407045704A4
:104B4C000E045E04B0001922B7001A221621A4002C
:044B5C00A025A000F0
:084B6000A90200080902000887
:044B6800E50100085B
:104B6C0000000000EC02002054030020BC030020D5
:104B7C000000000000000000000000000000000029
:104B8C000000000000000000000000000000000019
:104B9C0000000000A8460008000000000000000013
:104BAC0000000000000000000000000000000000F9
:104BBC0000000000000000000000000000000000E9
:104BCC0000000000000000000000000000000000D9
:104BDC0000000000000000000000000000000000C9
:104BEC0000000000000000000000000000000000B9
:104BFC0000000000000000000000000000000000A9
:104C0C000000000000000000010000000000000097
:104C1C000E33CDAB34126DE6ECDE05000B0000005C
:104C2C000000000000000000000000000000000078
:104C3C000000000000000000000000000000000068
:104C4C000000000000000000000000000000000058
:104C5C000000000000000000000000000000000048
:104F8C0000000000000000000070000800A24A04AD
:104F9C005942000821400008B54300084D44000860
:084FAC000D45000801000000A2
:0400000508000B598B
:00000001FF
